:1000000007C1000033C1000031C100002FC1000052
:100010002DC100002BC1000029C1000027C1000034
:1000200025C1000023C1000021C100001FC1000044
:100030001DC100001BC1000019C1000017C1000054
:1000400015C1000013C1000011C100000FC1000064
:100050000DC100000BC1000009C10000F6C3000083
:1000600005C10000C9C300009EC30000FFC000001E
:10007000FDC00000FBC00000F9C00000F7C0000098
:10008000F5C00000F3C00000F1C00000EFC00000A8
:1000900061C3000036C3000022C40000E7C00000B6
:1000A000E5C00000E3C00000E1C00000DFC00000C8
:1000B000DDC00000DBC00000D9C00000D7C00000D8
:1000C000D5C00000D3C00000D1C00000CFC00000E8
:1000D000CDC00000CBC00000C9C00000C7C00000F8
:1000E000C5C0000090059305820586058A05CA05EE
:1000F00097059B05A105A505A905AF05B305B7059E
:10010000CA05BD05C105C505000021002400270062
:100110002A002D0030003300010100000401070116
:100120000A0100002200250028002B002E003100CB
:10013000340002010000050108010B010505050559
:10014000070508080808020202020A0A080804044F
:10015000040401010101010101010303030303037D
:100160000303040707070C0C0C0C0C0C0C0C02020C
:10017000020206060606060606060B0B0B0B0B0B09
:100180000B0B010210202008081020401020408096
:10019000020102010804020101020408102040804B
:1001A00080402010080402018004020180402010D9
:1001B0000804020108040201010204081020408022
:1001C000010204081020408000000A0B02090C0DF7
:1001D0000E080703040100000000000000000000FA
:1001E000000000000000000000000000000000000F
:1001F00000000000121110000000000000000000CC
:1002000000000000000000000000000000007A0470
:1002100011241FBECFEFD1E2DEBFCDBF00E00CBF87
:1002200023E0AAE1B2E001C01D92A336B207E1F7D4
:1002300012E0A0E0B2E0E4E5F1E100E00BBF02C0B3
:1002400007900D92AA31B107D9F711E0C8E0D1E0CB
:1002500000E005C021970109802FFE014CD5C73071
:10026000D10780E00807B1F798D372C7C9CEFC0167
:10027000A089B18982E08C93A485B5851C92A6855E
:10028000B7858FEC8C93108EA489B58986E08C930A
:10029000A289B3898C9180618C93A289B3898C9156
:1002A00088608C93A289B3898C9180688C93028832
:1002B000F389E02D80818F7D808308952FB7F89496
:1002C0008091210290912202A0912302B0912402F8
:1002D0002FBF80932D0290932E02A0932F02B093F4
:1002E0003002E0912502F09126020284F385E02D90
:1002F00085E292E0199597FF26C02FB7F894809178
:10030000210290912202A0912302B09124022FBFDA
:1003100040912D0250912E0260912F027091300277
:10032000841B950BA60BB70B4091290250912A0212
:1003300060912B0270912C0284179507A607B707CE
:1003400080F28FEF9FEF0895CF92DF92EF92FF92AE
:100350000F931F93CF93DF936C017A018B01C0E061
:10036000D0E0CE15DF0589F0D8016D918D01D60161
:10037000ED91FC910190F081E02DC6011995892B3A
:1003800011F47E0102C02196ECCFC701DF91CF911D
:100390001F910F91FF90EF90DF90CF900895FC0197
:1003A000A089B1898C91A689B78982FD0FC09C91E3
:1003B000818D8F5F8F73228D821749F0218DDF0130
:1003C000A20FB11D5D969C93818F08958C91089525
:1003D000089580E090E00895FC01538D448D252F11
:1003E00030E0842F90E0821B930B541710F0CF96CF
:1003F000089501970895FC01918D828D981761F001
:10040000828DDF01A80FB11D5D968C91928D9F5F4B
:100410009F73928F90E008958FEF9FEF0895FC01F6
:10042000918D828D981731F0828DE80FF11D858DA9
:1004300090E008958FEF9FEF0895FC01918D228D3C
:10044000892F90E0805C9F4F821B91098F739927C1
:10045000089585E292E0F1DF21E0892B09F420E0A4
:10046000822F089582EC92E0E8DF21E0892B09F4E5
:1004700020E0822F0895FC01848DDF01A80FB11DBB
:10048000A35ABF4F2C91848D90E001968F739927CA
:10049000848FA689B7892C93A089B1898C918064B7
:1004A0008C93938D848D981306C00288F389E02D78
:1004B00080818F7D80830895EF92FF920F931F9329
:1004C000CF93DF93EC0181E0888F9B8D8C8D981307
:1004D00005C0E889F989808185FD23C0F62E0B8D42
:1004E00010E00F5F1F4F0F731127E02E8C8DE81265
:1004F0000BC00FB607FCFACFE889F989808185FF28
:10050000F5CFCE01B8DFF2CF8B8DFE01E80FF11DE4
:10051000E35AFF4FF0820B8FEA89FB89808180626A
:1005200007C0EE89FF896083E889F989808180644A
:10053000808381E090E0DF91CF911F910F91FF9038
:10054000EF900895CF93DF93EC01888D8823C1F05D
:10055000EA89FB89808185FD05C0A889B9898C91CC
:1005600086FD0EC00FB607FCF5CF808185FFF2CF68
:10057000A889B9898C9185FFEDCFCE017CDFE8CFCA
:10058000DF91CF91089580E090E0892B19F06ADF28
:10059000811120C080E090E0892B19F05ADF811191
:1005A0001CC080E090E0892B41F080E090E0892B36
:1005B00021F00E940000811113C080E090E0892B9F
:1005C000A1F080E090E0892B81F00E940000811171
:1005D0000AC008950E940000DDCF0E940000E1CF14
:1005E0000E940000EACF0C94000008953FB7F894F1
:1005F00080911B0290911C02A0911D02B0911E02DD
:1006000026B5A89B05C02F3F19F00196A11DB11D6D
:100610003FBFBA2FA92F982F8827820F911DA11DA8
:10062000B11DBC01CD0142E0660F771F881F991FE5
:100630004A95D1F708958F929F92AF92BF92CF9231
:10064000DF92EF92FF926B017C01D0DF4B015C01E6
:10065000C114D104E104F104E9F0C8DFDC01CB01ED
:1006600088199909AA09BB09883E9340A105B105DB
:1006700078F321E0C21AD108E108F10888EE880E6B
:1006800083E0981EA11CB11CC114D104E104F10443
:1006900021F7DECFFF90EF90DF90CF90BF90AF902B
:1006A0009F908F9008958BB1599A61E070E080E03F
:1006B00090E0C1CF39D50F931F93CF93DF93EC0117
:1006C00088819981009729F02A813B812617370775
:1006D00080F48B016F5F7F4F43D4009761F0998363
:1006E00088831B830A832C813D81232B11F4FC0119
:1006F000108281E001C080E0DF91CF911F910F91C6
:1007000008951F920F920FB60F9211240BB60F92FD
:100710002F933F934F935F936F937F938F939F9309
:10072000AF93BF93EF93FF9385E292E0A4DEFF9136
:10073000EF91BF91AF919F918F917F916F915F9159
:100740004F913F912F910F900BBE0F900FBE0F90C6
:100750001F9018951F920F920FB60F9211240BB68F
:100760000F922F933F934F935F936F937F938F934A
:100770009F93AF93BF93EF93FF9385E292E00FDED9
:10078000FF91EF91BF91AF919F918F917F916F9169
:100790005F914F913F912F910F900BBE0F900FBE25
:1007A0000F901F9018951F920F920FB60F92112461
:1007B0000BB60F922F933F934F935F936F937F935B
:1007C0008F939F93AF93BF93EF93FF9382EC92E04D
:1007D00052DEFF91EF91BF91AF919F918F917F91E9
:1007E0006F915F914F913F912F910F900BBE0F90A2
:1007F0000FBE0F901F9018951F920F920FB60F9279
:1008000011240BB60F922F933F934F935F936F93E7
:100810007F938F939F93AF93BF93EF93FF9382EC5C
:1008200092E0BDDDFF91EF91BF91AF919F918F91CC
:100830007F916F915F914F913F912F910F900BBEE0
:100840000F900FBE0F901F9018951F920F920FB62A
:100850000F9211242F933F938F939F93AF93BF9346
:100860008091210290912202A0912302B091240252
:1008700030911A0223E0230F2D3720F40196A11D99
:10088000B11D05C026E8230F0296A11DB11D2093BE
:100890001A028093210290932202A0932302B09324
:1008A000240280911B0290911C02A0911D02B09124
:1008B0001E020196A11DB11D80931B0290931C0284
:1008C000A0931D02B0931E02BF91AF919F918F9193
:1008D0003F912F910F900FBE0F901F9018951F9270
:1008E0000F920FB60F92112459980F900FBE0F90D0
:1008F0001F901895E5E2F2E01382128248EE53E071
:1009000060E070E044835583668377838BE092E0F8
:10091000918380832DEC30E0358724872CEC30E008
:100920003787268728EC30E0318B208B29EC30E0AC
:10093000338B228B2AEC30E0358B248B2EEC30E08D
:10094000378B268B118E128E138E148EE2ECF2E012
:1009500013821282448355836683778391838083D5
:1009600085EC90E09587848784EC90E09787868774
:1009700080EC90E0918B808B81EC90E0938B828B6C
:1009800082EC90E0958B848B86EC90E0978B868B45
:10099000118E128E138E148E0895CF93DF93CDB7E0
:1009A000DEB729970FB6F894DEBF0FBECDBF78949F
:1009B00084B5826084BD84B5816084BD85B5826064
:1009C00085BD85B5816085BD80916E008160809315
:1009D0006E0010928100809181008260809381007E
:1009E000809181008160809381008091800081608E
:1009F000809380008091B10084608093B1008091E9
:100A0000B00081608093B0008091910082608093FB
:100A1000910080919100816080939100809190007D
:100A20008160809390008091A10082608093A100FA
:100A30008091A10081608093A1008091A0008160DD
:100A40008093A00080912101826080932101809198
:100A50002101816080932101809120018160809338
:100A6000200180917A00846080937A0080917A00DE
:100A7000826080937A0080917A00816080937A000E
:100A800080917A00806880937A001092C10068EEAD
:100A900073E080E090E0CFDD4FE851E0FA0164912F
:100AA00029E431E0F9018491882399F090E0880FDE
:100AB000991FFC01E85FFE4FA591B4918E5D9E4F9A
:100AC000FC01059114918FB7F8949C91692B6C935C
:100AD0008FBFE5EDF1E08491FA014491F901249191
:100AE000222309F465C0882309F454C090E0FC0176
:100AF0003197E231F10508F04DC08827EE58FF4FDD
:100B00008F4FF9C0809180008F7707C0809180005F
:100B10008F7D03C080918000877F809380003AC0E2
:100B200084B58F7702C084B58F7D84BD33C080913A
:100B3000B0008F7703C08091B0008F7D8093B000AC
:100B400029C0809190008F7707C0809190008F7DA1
:100B500003C080919000877F809390001BC080919C
:100B6000A0008F7707C08091A0008F7D03C0809187
:100B7000A000877F8093A0000DC0809120018F7717
:100B800007C0809120018F7D03C080912001877F65
:100B900080932001E22FF0E0EE0FFF1FEE5DFE4F8D
:100BA000A591B4918FB7F8949C91492B4C938FBF2A
:100BB000519A599882EC92E05ADB85E292E057DB39
:100BC0008091C90084648093C900FF24F39482EC6F
:100BD00092E033DC892B09F43FC082EC92E00BDC1D
:100BE000682F80910002882381F069875CDD809105
:100BF000C90081608093C900698585E292E05CDC70
:100C000010920002F092200227C0809120028823D7
:100C1000B1F060931F0210922002698744DD809139
:100C2000C9008E7F8093C900698585E292E044DC2B
:100C300080911F02813B81F4F09200020DC0F0927E
:100C40000002698730DD8091C9008E7F8093C900E2
:100C5000698585E292E030DC85E292E0EEDB892B6B
:100C600009F447C01A8219821C821B821E821D82CF
:100C700060E070E0CE0101961EDD29813A8181118C
:100C80000CC02115310511F0C901D2D01A82198288
:100C90001E821D821C821B821FC01E821D8269E172
:100CA00072E0C9014ED218C08F8318860D811E8153
:100CB0000F5F1F4FB801CE010196FDDC882361F064
:100CC00029813A818D819E81BE01695F7F4F820FAC
:100CD000931F37D21E830D83F1DA97FFE5CF4D8145
:100CE0005E8169817A8182EC92E02EDB89819A8132
:100CF0009FD049DC6CCFEE0FFF1F881F8BBF079082
:100D0000F691E02D1994CF93DF938230910510F482
:100D100082E090E0E0916103F091620320E030E036
:100D2000C0E0D0E0309711F1408151814817590758
:100D3000C0F04817590761F482819381209719F018
:100D40009B838A832BC0909362038093610326C0A8
:100D50002115310519F04217530718F49A01BE0105
:100D6000DF01EF010280F381E02DDCCF2115310599
:100D700009F1281B390B2430310590F412968D911E
:100D80009C9113976115710521F0FB019383828378
:100D900004C09093620380936103FD01329644C0C6
:100DA000FD01E20FF31F81939193225031092D939E
:100DB0003C933AC020915F0330916003232B41F4B0
:100DC00020910302309104023093600320935F036B
:100DD00020910102309102022115310541F42DB715
:100DE0003EB74091050250910602241B350BE0915D
:100DF0005F03F0916003E217F307A0F42E1B3F0B93
:100E00002817390778F0AC014E5F5F4F241735077C
:100E100048F04E0F5F1F5093600340935F03819330
:100E2000919302C0E0E0F0E0CF01DF91CF9108950F
:100E30000F931F93CF93DF93009709F48CC0FC01AD
:100E4000329713821282009161031091620301159F
:100E5000110581F420813181820F931F20915F035E
:100E6000309160032817390779F5F0936003E09318
:100E70005F0371C0D80140E050E0AE17BF0750F4E7
:100E800012962D913C911397AD012115310509F171
:100E9000D901F3CF9D01DA0133832283608171810F
:100EA000860F971F8217930769F4EC012881398117
:100EB000260F371F2E5F3F4F318320838A819B810E
:100EC00093838283452B29F4F0936203E0936103BB
:100ED00042C01396FC93EE931297ED0149915991FC
:100EE0009E01240F351FE217F30771F48081918171
:100EF000840F951F029611969C938E938281938105
:100F000013969C938E931297E0E0F0E0D80112962E
:100F10008D919C911397009719F0F8018C01F6CFF1
:100F20008D919C9198012E5F3F4F820F931F2091CE
:100F30005F03309160032817390769F4309729F46B
:100F4000109262031092610302C013821282109306
:100F5000600300935F03DF91CF911F910F9108957C
:100F60006F927F928F929F92AF92BF92CF92DF92B9
:100F7000EF92FF920F931F93CF93DF93EC010097B3
:100F800081F4CB01DF91CF911F910F91FF90EF90F2
:100F9000DF90CF90BF90AF909F908F907F906F9099
:100FA000B2CEFC01E60FF71F9C0122503109E21777
:100FB000F30708F4A8C0D9010D911C9111970617E9
:100FC0001707A8F00530110508F49BC0C801049765
:100FD0008617970708F495C002501109061B170BD6
:100FE000019311936D937C93CF0122DF8AC05B0143
:100FF000A01AB10A4C01800E911EA0916103B0911C
:10100000620340E050E0E12CF12C109709F44AC053
:10101000A815B905D1F56D907C901197630182E018
:10102000C80ED11CCA14DB0480F1A3014A195B0964
:101030006A0182E0C80ED11C1296BC9012971396DA
:10104000AC91B5E0CB16D10440F0B282A3835183BA
:101050004083D9016D937C930AC00E5F1F4FC3017B
:10106000800F911FF90191838083EB2DFA2FE114FA
:10107000F10431F0D7011396FC93EE93129741C01F
:10108000F0936203E09361033CC08D919C911197B2
:101090004817590708F4AC017D0112960D90BC91D8
:1010A000A02DB3CF80915F039091600388159905BF
:1010B000E1F446175707C8F48091010290910202AB
:1010C000009741F48DB79EB74091050250910602FA
:1010D000841B950BE817F907B0F4F0936003E093D5
:1010E0005F03F901718360830CC0CB010CDE7C01CE
:1010F000009749F0A801BE011BD0CE0199DEC701BF
:1011000004C0CE0102C080E090E0DF91CF911F913A
:101110000F91FF90EF90DF90CF90BF90AF909F9096
:101120008F907F906F90089581E090E0F89410C0C8
:10113000FB01DC0102C001900D9241505040D8F7F4
:101140000895FB01DC0101900D920020E1F7089564
:04115000F894FFCF41
:1011540001000063038000000000005C02A401ECB5
:0A11640001A2021D02FB010F0200B0
:00000001FF
