:100000000C94D5000C94FD000C94FD000C94FD00A4
:100010000C94FD000C94FD000C94FD000C94FD006C
:100020000C94FD000C94FD000C94FD000C94FD005C
:100030000C94FD000C94FD000C94FD000C94FD004C
:100040000C94EC040C94FD000C94BA040C949404ED
:100050000C9455060C94FD000C94FD000C94FD00CE
:100060000C9436050C94FD0000407A10F35A00A061
:10007000724E18090010A5D4E80000E87648170071
:1000800000E40B54020000CA9A3B000000E1F505B1
:10009000000080969800000040420F000000A086FB
:1000A00001000000102700000000E803000000002D
:1000B0006400000000000A000000000001000000D1
:1000C00000002C76D888DC674F0823DFC1DFAE59EB
:1000D000E1B1B796E5E3E453C63AE651997696E87E
:1000E000E6C28426EB898C9B62ED407C6FFCEFBC02
:1000F0009C9F40F2BAA56FA5F490055A2AF75C932D
:100100006B6CF9676DC11BFCE0E40D47FEF520E662
:10011000B500D0ED902E0300943577050080841E45
:10012000080000204E0A000000C80C333333330FA0
:10013000986E12831141EF8D2114893BE65516CF3D
:10014000FEE6DB18D1844B381BF77C1D901DA4BB49
:10015000E424203284725E228100C9F124ECA1E5FE
:100160003D2700000000250028002B0004040404A3
:100170000404040402020202020203030303030351
:10018000010204081020408001020408102001022E
:10019000040810200000000800020100000304070A
:1001A0000000000000000000600611241FBECFEF19
:1001B000D8E0DEBFCDBF11E0A0E0B1E0EAE0F9E1B8
:1001C00002C005900D92AC32B107D9F722E0ACE243
:1001D000B1E001C01D92AB39B207E1F710E0C5ED07
:1001E000D0E004C02197FE010E947D0CC43DD107E0
:1001F000C9F70E9499060C94830C0C94000020917E
:10020000F10181E0213208F044C08091CD018111DB
:10021000FCCF8091F00192E09093CD0191E090931A
:10022000CC019FEF9093CB011092CA012093C9019A
:10023000A0EDB1E0E9EAF1E090E0291331C01092BD
:10024000A8019091A801880F892B8093A801809123
:10025000A701813049F51092A7018091A8018093F0
:10026000BB008091BC0083FDF8CF85EC8093BC007F
:100270008091CD018230E1F38091CB018F3FB1F0CD
:100280008091CB018032A1F08091CB01803391F03D
:1002900084E01092CF011092F1011092CE010895E6
:1002A0003D9131939F5FC9CF85EEE0CF80E0F1CFE4
:1002B00082E0EFCF83E0EDCF90E0FC01EC56FE4F03
:1002C0002491FC01E058FE4F3491FC01E459FE4FAB
:1002D000E491EE23B1F0222339F02330E9F090F4D9
:1002E000213001F1223011F1F0E0EE0FFF1FEE5945
:1002F000FE4FA591B4918FB7F894EC913E2B3C93AF
:100300008FBF08952730A9F02830C9F0243061F755
:10031000809180008F7D03C0809180008F778093D3
:100320008000E2CF84B58F7784BDDECF84B58F7D2A
:10033000FBCF8091B0008F778093B000D5CF8091B4
:10034000B0008F7DF9CF80917C0190917D01891B58
:10035000990B089508950895AF92BF92CF92DF92BE
:10036000EF92FF920F931F93CF93DF936C017B016A
:100370008B01040F151FEB015E01AE18BF08C017FB
:10038000D10759F06991D601ED91FC910190F0816E
:10039000E02DC6010995892B79F7C501DF91CF9131
:1003A0001F910F91FF90EF90DF90CF90BF90AF9093
:1003B0000895AB01BC0182EF91E00C94AC01FC010B
:1003C000538D448D252F30E0842F90E0821B930BBA
:1003D000541710F0CF96089501970895FC01918D60
:1003E000828D981761F0A28DAE0FBF2FB11D5D9663
:1003F0008C91928D9F5F9F73928F90E008958FEF05
:100400009FEF0895FC01918D828D981731F0828DB8
:10041000E80FF11D858D90E008958FEF9FEF08950F
:10042000FC01918D228D892F90E0805C9F4F821B73
:1004300091098F739927089582EF91E00E9410022D
:1004400021E0892B09F420E0822F089580E090E0DC
:10045000892B29F00E941C0281110C940000089540
:10046000FC01A48DA80FB92FB11DA35ABF4F2C9129
:10047000848D90E001968F739927848FA689B78920
:100480002C93A089B1898C91837080648C93938D17
:10049000848D981306C00288F389E02D80818F7DBA
:1004A00080830895EF92FF920F931F93CF93DF9372
:1004B000EC0181E0888F9B8D8C8D98131AC0E889A0
:1004C000F989808185FF15C09FB7F894EE89FF896F
:1004D0006083E889F98980818370806480839FBF0D
:1004E00081E090E0DF91CF911F910F91FF90EF900D
:1004F0000895F62E0B8D10E00F5F1F4F0F7311271D
:10050000E02E8C8D8E110CC00FB607FCFACFE88957
:10051000F989808185FFF5CFCE010E943002F1CFAD
:10052000EB8DEC0FFD2FF11DE35AFF4FF0829FB7CB
:10053000F8940B8FEA89FB8980818062CFCF6AE0D3
:1005400082EF91E00C945202CF93DF93EC01888DFF
:100550008823B9F0AA89BB89E889F9898C9185FD3E
:1005600003C0808186FD0DC00FB607FCF7CF8C91CC
:1005700085FFF2CF808185FFEDCFCE010E94300252
:10058000E9CFDF91CF9108953FB7F894809174013E
:1005900090917501A0917601B091770126B5A89B45
:1005A00005C02F3F19F00196A11DB11D3FBFBA2F05
:1005B000A92F982F8827BC01CD01620F711D811DC5
:1005C000911D42E0660F771F881F991F4A95D1F74A
:1005D00008958F929F92AF92BF92CF92DF92EF9247
:1005E000FF924B015C010E94C4026B017C010E94DE
:1005F000C4026C197D098E099F09683E734081050C
:100600009105A8F321E0821A9108A108B10888EEAB
:10061000C80E83E0D81EE11CF11C81149104A104D2
:10062000B10429F7FF90EF90DF90CF90BF90AF908B
:100630009F908F90089585ED8093BC008091BC00C1
:1006400084FDFCCF1092CD01089520914C01260F1E
:100650003327331F21323105ECF42091CD01FC0109
:1006600090E080E0243069F082E00895A0914C0190
:100670002191AC01445D5E4FA40FB52FB11D2C93A9
:100680000196861798F380914C01680F60934C0196
:1006900080E0089581E008950895E0917D018091C2
:1006A0007C01E81730F4F0E0E258FE4F808190E0E2
:1006B00008958FEF9FEF089590917D0180917C01C7
:1006C0002FEF3FEF981748F4E92FF0E0E258FE4F84
:1006D000208130E09F5F90937D01C9010895CF9202
:1006E000DF92EF92FF920F931F93CF93DF937C01E2
:1006F000CB018A012091CE01222389F0EB016B010D
:10070000C40ED51ECC15DD0569F06991D701ED91B8
:10071000FC910190F081E02DC7010995F3CF642F82
:100720000E942503C801DF91CF911F910F91FF9087
:10073000EF90DF90CF900895CF93DF931F92CDB7C6
:10074000DEB769832091CE012223F9F02091F101D7
:10075000203258F021E030E0FC013383228390E026
:1007600080E00F90DF91CF9108958091CF01E82F25
:10077000F0E0E053FE4F998190838F5F8093CF012B
:100780008093F10181E090E0ECCF61E0CE01019631
:100790000E942503F7CF90E080E00895FC01680FE8
:1007A000791F2FEF88EBE617F70779F091919227E1
:1007B00048E050E0292F30E03595279590FD282717
:1007C00041505109922FB1F7EECF822F08955A9AD6
:1007D00061E070E080E090E00C94E902CF92DF925B
:1007E000EF92FF920F931F93CF93DF93CDB7DEB7B6
:1007F000A1970FB6F894DEBF0FBECDBF9C0150E0AD
:1008000040E019A28E010F5D1F4F8AE0C82ED12C47
:10081000E12CF12CCA01B901A70196010E94470CF5
:10082000605DF80162938F01211531054105510585
:1008300089F7309731F101900020E9F73197AF0146
:10084000401B510BB80182EF91E00E94AC018C017A
:1008500042E050E065E271E082EF91E00E94AC017D
:10086000800F911FA1960FB6F894DEBF0FBECDBFCB
:10087000DF91CF911F910F91FF90EF90DF90CF907C
:10088000089510E000E0E4CF9F92AF92BF92CF9224
:10089000DF92EF92FF920F931F93CF93DF938C0120
:1008A000942EEB012196CE0165E070E00E94330C9E
:1008B0007B01892B19F481E0E81AF10863E082EFEB
:1008C00091E00E945202680110E000E02197CC0DF7
:1008D000DD1D65E070E0C6010E94CE03A82EB12C9C
:1008E000E016F10619F488818925888365E070E0B7
:1008F000C6010E94D9010E949F02C5010E94EE0319
:100900000F5F1F4F85E0C80ED11C0330110509F79A
:10091000DF91CF911F910F91FF90EF90DF90CF90DB
:10092000BF90AF909F9008951F920F920FB60F92B5
:1009300011242F933F934F935F936F937F938F93E4
:100940009F93AF93BF93EF93FF9382EF91E00E9449
:100950003002FF91EF91BF91AF919F918F917F9165
:100960006F915F914F913F912F910F900FBE0F901C
:100970001F9018951F920F920FB60F9211242F936C
:100980008F939F93EF93FF93E0910202F091030204
:100990008081E0910802F091090282FD1BC09081E4
:1009A00080910B028F5F8F7320910C02821741F0B0
:1009B000E0910B02F0E0EE50FE4F958F80930B021A
:1009C000FF91EF919F918F912F910F900FBE0F90FC
:1009D0001F9018958081F4CF1F920F920FB60F923F
:1009E00011242F933F938F939F93AF93BF93809145
:1009F000700190917101A0917201B09173013091D9
:100A00006F0123E0230F2D3758F50196A11DB11D6D
:100A100020936F018093700190937101A0937201F4
:100A2000B09373018091740190917501A09176014A
:100A3000B09177010196A11DB11D8093740190932F
:100A40007501A0937601B0937701BF91AF919F910B
:100A50008F913F912F910F900FBE0F901F9018957F
:100A600026E8230F0296A11DB11DD2CF1F920F922F
:100A70000FB60F9211242F933F934F935F936F9371
:100A80007F938F939F93AF93BF93EF93FF93809147
:100A9000B900887F803609F44AC0F0F5883209F43D
:100AA000A7C018F5803109F49BC0B8F4882309F475
:100AB000F9C0883009F494C0FF91EF91BF91AF91D4
:100AC0009F918F917F916F915F914F913F912F9166
:100AD0000F900FBE0F901F901895883109F488C0B1
:100AE000803251F78093CB0114C0803409F49DC04B
:100AF00040F48033B9F38833F9F68093CB0185EC69
:100B0000B0C0803509F485C0883509F496C08834B2
:100B100099F60E941B03D0CF883909F48CC038F5B0
:100B2000883729F050F4883611F0803729F683E0B1
:100B30008093CD0110926E0157C0883809F47BC0B4
:100B4000803919F0803809F0B7CF80916E0180327A
:100B500008F071C0E0916E0181E08E0F80936E010C
:100B60008091BB00F0E0E25BFE4F80833DC0803BA4
:100B700039F0E0F4803A09F479C0883A09F09CCF62
:100B800084E08093CD0110924D0110924C01E091D0
:100B90007A01F0917B01099580914C0181110FC080
:100BA00081E080934C0110922C0109C0803C09F433
:100BB000A6CF883C09F4A3CF883B09F07DCFE09114
:100BC0004D0181E08E0F80934D01F0E0E45DFE4F1A
:100BD00080818093BB0090914D0180914C0129C090
:100BE0008091A8018093BB0085EC8093BC0064CF0A
:100BF0009091CA018091C901981758F5E091CA01F6
:100C000081E08E0F8093CA01F0E0E755FE4F8081AE
:100C1000E9CFE091CA0181E08E0F8093CA018091F3
:100C2000BB00F0E0E755FE4F80839091CA018091B0
:100C3000C9019817C8F285E8D8CFE091CA0181E0D0
:100C40008E0F8093CA018091BB00F0E0E755FE4F04
:100C500080838091CC0181115CCF81E08093A701DA
:100C600084EA8093BC001092CD0126CF85EC80935E
:100C7000BC001092CD0180916E01803230F4E09181
:100C80006E01F0E0E25BFE4F108260916E0170E059
:100C9000E0917801F09179018EE491E0099510924C
:100CA0006E010ACF1092CB0134CF1F920F920FB674
:100CB0000F9211245A980F900FBE0F901F90189505
:100CC000E2EFF1E01382128288EE93E0A0E0B0E060
:100CD00084839583A683B78325E031E03183208325
:100CE00025EC30E03587248724EC30E037872687F1
:100CF00020EC30E0318B208B21EC30E0338B228BE9
:100D000022EC30E0358B248B26EC30E0378B268BC1
:100D1000118E128E138E148EEFE8F2E0138212827F
:100D200084839583A683B78387E191E09183808351
:100D30000895CF93DF9300D01F92CDB7DEB778949C
:100D400084B5826084BD84B5816084BD85B58260D0
:100D500085BD85B5816085BD80916E008160809381
:100D60006E001092810080918100826080938100EA
:100D700080918100816080938100809180008160FA
:100D8000809380008091B10084608093B100809155
:100D9000B00081608093B00080917A00846080937D
:100DA0007A0080917A00826080937A0080917A0044
:100DB000816080937A0080917A00806880937A00C5
:100DC0001092C10010927D0110927C011092CF010F
:100DD0001092F1011092CD0111E01093CC0110920C
:100DE000A70182E10E945C0183E10E945C01809185
:100DF000B9008E7F8093B9008091B9008D7F809378
:100E0000B90088E48093B80095E49093BC002AEA86
:100E100031E030937B0120937A012BEA31E030936B
:100E20007901209378011093CE018093F001109204
:100E3000CF011092F10161E08FE892E00E949C03E3
:100E400064E68FE892E00E949C030E94FF0068EE37
:100E500073E080E090E00E94E9028FEF84B915B85A
:100E600087E08AB988EF8BB9E0910202F091030222
:100E700012E01083E091FE01F091FF011082E091F9
:100E80000002F09101028FEC808310920A02E0913F
:100E90000602F091070286E08083E0910402F0915F
:100EA0000502808180618083E0910402F091050257
:100EB000808188608083E0910402F0910502808146
:100EC00080688083E0910402F091050280818F7D2B
:100ED00080838091C10084648093C1008091C000B0
:100EE00081608093C00061E070E080E090E00E944B
:100EF000E9021093A00115B96090280170902901B2
:100F000080902A0125EEE22E30E0A32E30E0B32EB1
:100F1000FF24F39448E4942E55245A9495EC492EDA
:100F200089B182EF91E00E941002892B09F498C0E8
:100F3000F092CE019092F0011092CF011092F10147
:100F400060E08FE892E00E949C030E94FF00F09214
:100F5000CE011092CF011092F1018091CD0181114B
:100F6000FCCFF092CD01F092CC015092CB011092C7
:100F7000CA01F092C901F092A8018091A80180698C
:100F80008093A8018091A701813009F075C010926B
:100F9000A7018091A8018093BB008091BC0083FDD4
:100FA000F8CF4092BC008091CD018130E1F3809177
:100FB000CA0192E0823010F49091CA01A9EAB1E02E
:100FC000EEE7F1E080E089135AC010927D01809332
:100FD0007C01882359F18FE892E00E945C03182F6E
:100FE0008093A5019093A6018FE892E00E945C0394
:100FF000D12EC12CB601682B792B84E075956795AD
:101000008A95E1F7072E000C880B990B0E943A0B8A
:1010100020E030E040E85DE30E94750B6093A101A1
:101020007093A2018093A3019093A4010E94FF00FA
:1010300069827A828B8282EF91E00E94EE01909128
:101040000001992301F19091A001891309C0109228
:101050000001F0929F018091C0008E7F8093C000BC
:10106000A114B10409F45CCF0E941C02882309F486
:1010700055CF0E94000052CFE092BC0094CF2D913A
:1010800021938F5FA0CF90919F01992309F45BC0BA
:1010900080939E0110929F01813A11F3813BD1F51B
:1010A000F09200010E94E7036091A1017091A201FA
:1010B0008091A3019091A4018E010F5F1F4F22E048
:1010C00044E00E94AC088C0162E082EF91E00E9453
:1010D000520265E070E0C8010E94D9010E949F029F
:1010E00065E070E0C8010E94CE0390E00E94EE032C
:1010F0000B5F1F4F61E070E0C8010E94D9010E94A0
:101100009F0261E070E0C8010E94CE0390E00E945F
:10111000EE03A6CF813C61F4F09200010E94E70348
:1011200041E070E060E0CE0101960E94440498CF57
:10113000813D09F095CFF09200010E94E70347E05E
:1011400067E070E0F0CF90919E01913A09F088CF6E
:10115000F092000185B984CFEF920F931F93CF9344
:10116000DF93E80134E047FD34E1042E000C550B19
:1011700057FF03C0519541955109E32E022F242FAB
:10118000AE010E94CA08CE01DF91CF911F910F914D
:10119000EF900895A9E0B0E0E0EDF8E00C94070BC3
:1011A0006A01F22EB02E102FFBE3AF2EA01608F42A
:1011B0001BE31F5F012F27E0AE014F5F5F4F0E94CF
:1011C000290ABC018981982F9970913009F43FC098
:1011D0009BE2E1FC04C09E2D9170E0FC3AC05E2DC4
:1011E0005071E82FE87083FF46C084E0911101C080
:1011F00083E0EF2DE81B8F1508F0E0E0D6018E2F7D
:1012000020E2552351F1992329F0D6019C93C60180
:1012100001966C0196012D5F3F4FE2FE24C08EE4E3
:10122000D6018C9391E411969C93119712968C930E
:10123000D9018E2F90E281111BC0E20FF32FF11D17
:1012400010828EEF9FEF2996ECE00C94230B9DE229
:10125000C6CF90E2C4CF2D9381508111FCCFCE0E2A
:10126000D11CE0E0D0CF8EE6D6018C9391E6DBCFA7
:101270009D938150E0CF482F447082FF3DC084E0B1
:10128000911101C083E08F1510F4EF2DE81BD601FA
:101290008E2F20E2552309F1992329F0D6019C9342
:1012A000C60101966C0196012D5F3F4FE2FE1BC007
:1012B00089E4D6018C938EE411968C93119786E481
:1012C00012968C93D9018E2F90E2882309F4B5CF22
:1012D0009D938150FACF2D9381508111FCCFCE0E7A
:1012E000D11CE0E0D9CF89E6D6018C938EE6119629
:1012F0008C93119786E6E4CF9B0177FF02C030E024
:1013000020E0A1E0B0E0911102C0B0E0A0E0F9015E
:101310003196AE0FBF1F8B2C912CBB2009F461C0FE
:101320005401EFEFAE1ABE0AAA0DBB1DFA161B063A
:1013300019F014F04F2D4A1B511188C0E3FC59C01D
:101340007601A42FB0E2A1114FC0C40ED11C992385
:1013500009F45BC040E0D6011196F60190836D015F
:10136000552309F448C0012F060F9A81582F507158
:1013700084FF03C0913309F4015010160CF047C0EC
:10138000093008F008E0EEE2FE2E5B01A01AB10879
:1013900085019194819491082F3F320729F4D60159
:1013A000FC92F60131966F016217730794F10217F0
:1013B00013077CF5DB01A21BB30BAA24A394B12C69
:1013C000AC0EBD1EAA0DBB1D11968C91215031098A
:1013D000D601119628153905F4F0F60180836D01C8
:1013E000DBCFB12CA12CA0CFF701B1937F01A1508D
:1013F000AACF9111B0CFD601942F50E302C05D93D4
:1014000091509111FCCFC40ED11C40E0ACCF01E053
:10141000BACF80E3DBCF6217730731F4963388F4D9
:10142000953311F4552369F0F6018083FD01842F73
:1014300090E2811108C0A40FB11D1C9290E080E0E1
:1014400002CF81E3F1CF91938150F3CF911183CFFC
:101450008ACF283008F027E03327DA01990F311DB1
:1014600087FD916000966105710539F432602E5F49
:101470003D9330E32A95E1F708959F3F30F080389F
:101480007105610509F03C5F3C5F3D93913008F0C8
:101490008068911DDF93CF931F930F93FF92EF927C
:1014A000192F987F9695E92F96959695E90FFF2726
:1014B000EE53FF4F99273327EE24FF24A701E701BE
:1014C00005900894079428F4360FE71EF81E491F6C
:1014D000511D660F771F881F991F0694A1F705906D
:1014E000079428F4E70EF81E491F561FC11D770FF9
:1014F000881F991F661F0694A1F70590079428F48A
:10150000F80E491F561FC71FD11D880F991F661F50
:10151000771F0694A1F70590079420F4490F561FF2
:10152000C71FD81F990F661F771F881F0694A9F73A
:1015300084911095177041F0D695C79557954795AA
:10154000F794E7941A95C1F7E8E6F0E068941590EF
:10155000159135916591959105907FE27395E1180C
:10156000F10A430B560BC90BD009C0F7E10CF11E71
:10157000431F561FC91FD01D7EF4703311F48A9586
:10158000E6CFE894015030F0080F0AF40027021764
:1015900008F4202F2395022F7A3328F079E37D93E6
:1015A0002A95E9F710C07D932A9589F606949795B8
:1015B0006795379517951794E118F10A430B560B69
:1015C000C90BD00998F023957E9173957A3308F072
:1015D00070E37C932013B8F77E9170617D9330F0B7
:1015E000839571E37D9370E32A95E1F71124EF90E1
:1015F000FF900F911F91CF91DF91992787FD9095D3
:1016000008952F923F924F925F926F927F928F92A6
:101610009F92AF92BF92CF92DF92EF92FF920F9381
:101620001F93CF93DF93CDB7DEB7CA1BDB0B0FB68B
:10163000F894DEBF0FBECDBF09942A883988488848
:101640005F846E847D848C849B84AA84B984C884DE
:10165000DF80EE80FD800C811B81AA81B981CE0FD5
:10166000D11D0FB6F894DEBF0FBECDBFED010895BA
:10167000E89409C097FB3EF490958095709561952C
:101680007F4F8F4F9F4F9923A9F0F92F96E9BB27E2
:101690009395F695879577956795B795F111F8CF5E
:1016A000FAF4BB0F11F460FF1BC06F5F7F4F8F4FC9
:1016B0009F4F16C0882311F096E911C0772321F0BF
:1016C0009EE8872F762F05C0662371F096E8862F57
:1016D00070E060E02AF09A95660F771F881FDAF7AE
:1016E000880F9695879597F908950E94880B0C941A
:1016F000F90B0E94EB0B38F00E94F20B20F09523BF
:1017000011F00C94E20B0C94E80B11240C942D0CAA
:101710000E940A0C70F3959FC1F3950F50E0551F7E
:10172000629FF001729FBB27F00DB11D639FAA2736
:10173000F00DB11DAA1F649F6627B00DA11D661F85
:10174000829F2227B00DA11D621F739FB00DA11DA6
:10175000621F839FA00D611D221F749F3327A00D60
:10176000611D231F849F600D211D822F762F6A2FFC
:1017700011249F5750409AF0F1F088234AF0EE0F61
:10178000FF1FBB1F661F771F881F91505040A9F78E
:101790009E3F510580F00C94E20B0C942D0C5F3FA2
:1017A000E4F3983ED4F3869577956795B795F795CA
:1017B000E7959F5FC1F7FE2B880F911D9695879542
:1017C00097F9089597F99F6780E870E060E00895C1
:1017D0009FEF80EC089500240A9416161706180649
:1017E0000906089500240A94121613061406050625
:1017F0000895092E0394000C11F4882352F0BB0FB6
:1018000040F4BF2B11F460FF04C06F5F7F4F8F4F18
:101810009F4F089557FD9058440F551F59F05F3F53
:1018200071F04795880F97FB991F61F09F3F79F002
:1018300087950895121613061406551FF2CF469584
:10184000F1DF08C0161617061806991FF1CF869506
:101850007105610508940895E894BB2766277727EA
:10186000CB0197F9089597FB072E16F4009407D043
:1018700077FD09D00E94690C07FC05D03EF49095D5
:1018800081959F4F0895709561957F4F0895A1E2CE
:101890001A2EAA1BBB1BFD010DC0AA1FBB1FEE1FEA
:1018A000FF1FA217B307E407F50720F0A21BB30B35
:1018B000E40BF50B661F771F881F991F1A9469F7B1
:1018C00060957095809590959B01AC01BD01CF010D
:1018D0000895AA1BBB1B51E107C0AA1FBB1FA61777
:1018E000B70710F0A61BB70B881F991F5A95A9F7C9
:1018F00080959095BC01CD010895EE0FFF1F0590D6
:0A190000F491E02D0994F894FFCF54
:10190A0001000000005202AC01DF01A4021002EE45
:10191A00010202000000009C036F03CB034C03A3E7
:0C192A00015C034D030D0A003139000080
:00000001FF
