:100000000C9458000C9480000C9480000C94800098
:100010000C9480000C9480000C9480000C94800060
:100020000C9480000C9480000C9480000C94800050
:100030000C9480000C9480000C9480000C94800040
:100040000C94AC040C9480000C947A040C9454042A
:100050000C9415060C9480000C9480000C94800085
:100060000C94F6040C948000000000002500280089
:100070002B00040404040404040402020202020229
:10008000030303030303010204081020408001025C
:1000900004081020010204081020000000080002DB
:1000A000010000030407000000000000000020061B
:1000B00011241FBECFEFD8E0DEBFCDBF11E0A0E01E
:1000C000B1E0E6ECF0E102C005900D92AC32B10770
:1000D000D9F722E0ACE2B1E001C01D92A739B20726
:1000E000E1F710E0C8E5D0E004C02197FE010E94CE
:1000F0005B08C735D107C9F70E9459060C946108FF
:100100000C9400002091ED0181E0213208F044C000
:100110008091C9018111FCCF8091EC0192E0909314
:10012000C90191E09093C8019FEF9093C70110928D
:10013000C6012093C501ACECB1E0E5EAF1E090E046
:10014000291331C01092A4019091A401880F892B2A
:100150008093A4018091A301813049F51092A301FD
:100160008091A4018093BB008091BC0083FDF8CFF7
:1001700085EC8093BC008091C9018230E1F38091CD
:10018000C7018F3FB1F08091C7018032A1F080910B
:10019000C701803391F084E01092CB011092ED0101
:1001A0001092CA0108953D9131939F5FC9CF85EEAA
:1001B000E0CF80E0F1CF82E0EFCF83E0EDCF90E0C1
:1001C000FC01E656FF4F2491FC01EA57FF4F3491A2
:1001D000FC01EE58FF4FE491EE23B1F0222339F0F9
:1001E0002330E9F090F4213001F1223011F1F0E0F8
:1001F000EE0FFF1FE859FF4FA591B4918FB7F89408
:10020000EC913E2B3C938FBF08952730A9F0283006
:10021000C9F0243061F7809180008F7D03C0809108
:1002200080008F7780938000E2CF84B58F7784BD84
:10023000DECF84B58F7DFBCF8091B0008F77809328
:10024000B000D5CF8091B0008F7DF9CF80917C0137
:1002500090917D01891B990B089508950895AF929F
:10026000BF92CF92DF92EF92FF920F931F93CF93A3
:10027000DF936C017B018B01040F151FEB015E0105
:10028000AE18BF08C017D10759F06991D601ED919A
:10029000FC910190F081E02DC6010995892B79F739
:1002A000C501DF91CF911F910F91FF90EF90DF90EB
:1002B000CF90BF90AF900895FC01538D448D252FB2
:1002C00030E0842F90E0821B930B541710F0CF96F0
:1002D000089501970895FC01918D828D981761F022
:1002E000A28DAE0FBF2FB11D5D968C91928D9F5F39
:1002F0009F73928F90E008958FEF9FEF0895FC0118
:10030000918D828D981731F0828DE80FF11D858DCA
:1003100090E008958FEF9FEF0895FC01918D228D5D
:10032000892F90E0805C9F4F821B91098F739927E2
:1003300008958EEE91E00E948D0121E0892B09F451
:1003400020E0822F089580E090E0892B29F00E9420
:10035000990181110C9400000895FC01A48DA80F4F
:10036000B92FB11DA35ABF4F2C91848D90E00196F7
:100370008F739927848FA689B7892C93A089B18917
:100380008C91837080648C93938D848D981306C0B8
:100390000288F389E02D80818F7D80830895EF921C
:1003A000FF920F931F93CF93DF93EC0181E0888F2F
:1003B0009B8D8C8D98131AC0E889F989808185FFFF
:1003C00015C09FB7F894EE89FF896083E889F989A1
:1003D00080818370806480839FBF81E090E0DF91A3
:1003E000CF911F910F91FF90EF900895F62E0B8DF6
:1003F00010E00F5F1F4F0F731127E02E8C8D8E11B1
:100400000CC00FB607FCFACFE889F989808185FF17
:10041000F5CFCE010E94AD01F1CFEB8DEC0FFD2F9A
:10042000F11DE35AFF4FF0829FB7F8940B8FEA89D2
:10043000FB8980818062CFCFCF93DF93EC01888DE1
:100440008823B9F0AA89BB89E889F9898C9185FD4F
:1004500003C0808186FD0DC00FB607FCF7CF8C91DD
:1004600085FFF2CF808185FFEDCFCE010E94AD01E7
:10047000E9CFDF91CF9108953FB7F894809174014F
:1004800090917501A0917601B091770126B5A89B56
:1004900005C02F3F19F00196A11DB11D3FBFBA2F16
:1004A000A92F982F8827BC01CD01620F711D811DD6
:1004B000911D42E0660F771F881F991F4A95D1F75B
:1004C00008958F929F92AF92BF92CF92DF92EF9258
:1004D000FF924B015C010E943C026B017C010E9477
:1004E0003C026C197D098E099F09683E73408105A5
:1004F0009105A8F321E0821A9108A108B10888EEBD
:10050000C80E83E0D81EE11CF11C81149104A104E3
:10051000B10429F7FF90EF90DF90CF90BF90AF909C
:100520009F908F90089585ED8093BC008091BC00D2
:1005300084FDFCCF1092C901089520914C01260F33
:100540003327331F21323105ECF42091C901FC011E
:1005500090E080E0243069F082E00895A0914C01A1
:100560002191AC01445D5E4FA40FB52FB11D2C93BA
:100570000196861798F380914C01680F60934C01A7
:1005800080E0089581E008950895E0917D018091D3
:100590007C01E81730F4F0E0E258FE4F808190E0F3
:1005A00008958FEF9FEF089590917D0180917C01D8
:1005B0002FEF3FEF981748F4E92FF0E0E258FE4F95
:1005C000208130E09F5F90937D01C9010895CF9213
:1005D000DF92EF92FF920F931F93CF93DF937C01F3
:1005E000CB018A012091CA01222389F0EB016B0122
:1005F000C40ED51ECC15DD0569F06991D701ED91CA
:10060000FC910190F081E02DC7010995F3CF642F93
:100610000E949D02C801DF91CF911F910F91FF9021
:10062000EF90DF90CF900895CF93DF931F92CDB7D7
:10063000DEB769832091CA012223F9F02091ED01F0
:10064000203258F021E030E0FC013383228390E037
:1006500080E00F90DF91CF9108958091CB01E82F3A
:10066000F0E0E453FE4F998190838F5F8093CB013C
:100670008093ED0181E090E0ECCF61E0CE01019646
:100680000E949D02F7CF90E080E00895FC01680F82
:10069000791F2FEF88EBE617F70779F091919227F2
:1006A00048E050E0292F30E03595279590FD282728
:1006B00041505109922FB1F7EECF822F08955A9AE7
:1006C00061E070E080E090E00C946102CF92DF92F4
:1006D000EF92FF920F931F93CF93DF93CDB7DEB7C7
:1006E000A1970FB6F894DEBF0FBECDBF9C0150E0BE
:1006F00040E019A28E010F5D1F4F8AE0C82ED12C59
:10070000E12CF12CCA01B901A70196010E94390818
:10071000605DF80162938F01211531054105510596
:1007200089F7309731F101900020E9F73197AF0157
:10073000401B510BB8018EEE91E00E942F018C01FD
:1007400042E050E065E271E08EEE91E00E942F0100
:10075000800F911FA1960FB6F894DEBF0FBECDBFDC
:10076000DF91CF911F910F91FF90EF90DF90CF908D
:10077000089510E000E0E4CF5F926F927F928F9235
:100780009F92AF92BF92CF92DF92EF92FF920F9320
:100790001F93CF93DF934C018B01522EEA012196D8
:1007A000CB0165E070E00E9411089B01892B11F0DC
:1007B0002F5F3F4FCE0165E070E00E9425085B018E
:1007C000892B19F481E0A81AB108622F8EEE91E00E
:1007D0000E94CF016401F12CE12C2197C80DD91D95
:1007E0000530110528F165E070E0C6010E9446035E
:1007F000682E712CEA14FB0419F4888185258883FE
:1008000045E050E0B6018EEE91E00E942F016AE0D3
:100810008EEE91E00E94CF01C3010E946603055055
:1008200011098FEFE81AF80A85E0C80ED11CD8CF5D
:100830000115110549F125E02E9DC0012F9D900D58
:100840001124880E991EA801B4018EEE91E00E9439
:100850002F016AE08EEE91E00E94CF01B801C40141
:100860000E94460390E0DF91CF911F910F91FF907E
:10087000EF90DF90CF90BF90AF909F908F907F9040
:100880006F905F900C946603DF91CF911F910F9151
:10089000FF90EF90DF90CF90BF90AF909F908F90A0
:1008A0007F906F905F9008951F920F920FB60F92F6
:1008B00011242F933F934F935F936F937F938F9365
:1008C0009F93AF93BF93EF93FF938EEE91E00E94BF
:1008D000AD01FF91EF91BF91AF919F918F917F916A
:1008E0006F915F914F913F912F910F900FBE0F909D
:1008F0001F9018951F920F920FB60F9211242F93ED
:100900008F939F93EF93FF93E091FE01F091FF018E
:100910008081E0910402F091050282FD1BC090816C
:10092000809107028F5F8F7320910802821741F038
:10093000E0910702F0E0E251FE4F958F80930702AD
:10094000FF91EF919F918F912F910F900FBE0F907C
:100950001F9018958081F4CF1F920F920FB60F92BF
:1009600011242F933F938F939F93AF93BF938091C5
:10097000700190917101A0917201B0917301309159
:100980006F0123E0230F2D3758F50196A11DB11DEE
:1009900020936F018093700190937101A093720175
:1009A000B09373018091740190917501A0917601CB
:1009B000B09177010196A11DB11D809374019093B0
:1009C0007501A0937601B0937701BF91AF919F918C
:1009D0008F913F912F910F900FBE0F901F90189500
:1009E00026E8230F0296A11DB11DD2CF1F920F92B0
:1009F0000FB60F9211242F933F934F935F936F93F2
:100A00007F938F939F93AF93BF93EF93FF938091C7
:100A1000B900887F803609F44AC0F0F5883209F4BD
:100A2000A7C018F5803109F49BC0B8F4882309F4F5
:100A3000F9C0883009F494C0FF91EF91BF91AF9154
:100A40009F918F917F916F915F914F913F912F91E6
:100A50000F900FBE0F901F901895883109F488C031
:100A6000803251F78093C70114C0803409F49DC0CF
:100A700040F48033B9F38833F9F68093C70185ECED
:100A8000B0C0803509F485C0883509F496C0883433
:100A900099F60E949302D0CF883909F48CC038F5BA
:100AA000883729F050F4883611F0803729F683E032
:100AB0008093C90110926E0157C0883809F47BC039
:100AC000803919F0803809F0B7CF80916E018032FB
:100AD00008F071C0E0916E0181E08E0F80936E018D
:100AE0008091BB00F0E0E25BFE4F80833DC0803B25
:100AF00039F0E0F4803A09F479C0883A09F09CCFE3
:100B000084E08093C90110924D0110924C01E09154
:100B10007A01F0917B01099580914C0181110FC000
:100B200081E080934C0110922C0109C0803C09F4B3
:100B3000A6CF883C09F4A3CF883B09F07DCFE09194
:100B40004D0181E08E0F80934D01F0E0E45DFE4F9A
:100B500080818093BB0090914D0180914C0129C010
:100B60008091A4018093BB0085EC8093BC0064CF8E
:100B70009091C6018091C501981758F5E091C60182
:100B800081E08E0F8093C601F0E0EB55FE4F80812F
:100B9000E9CFE091C60181E08E0F8093C60180917C
:100BA000BB00F0E0EB55FE4F80839091C601809131
:100BB000C5019817C8F285E8D8CFE091C60181E059
:100BC0008E0F8093C6018091BB00F0E0EB55FE4F85
:100BD00080838091C80181115CCF81E08093A30163
:100BE00084EA8093BC001092C90126CF85EC8093E3
:100BF000BC001092C90180916E01803230F4E09106
:100C00006E01F0E0E25BFE4F108260916E0170E0D9
:100C1000E0917801F09179018EE491E009951092CC
:100C20006E010ACF1092C70134CF1F920F920FB6F8
:100C30000F9211245A980F900FBE0F901F90189585
:100C4000EEEEF1E01382128288EE93E0A0E0B0E0D5
:100C500084839583A683B78325E031E031832083A5
:100C600025EC30E03587248724EC30E03787268771
:100C700020EC30E0318B208B21EC30E0338B228B69
:100C800022EC30E0358B248B26EC30E0378B268B42
:100C9000118E128E138E148EEBE8F2E01382128204
:100CA00084839583A683B78387E191E091838083D2
:100CB0000895CF93DF9300D01F92CDB7DEB778941D
:100CC00084B5826084BD84B5816084BD85B5826051
:100CD00085BD85B5816085BD80916E008160809302
:100CE0006E0010928100809181008260809381006B
:100CF000809181008160809381008091800081607B
:100D0000809380008091B10084608093B1008091D5
:100D1000B00081608093B00080917A0084608093FD
:100D20007A0080917A00826080937A0080917A00C4
:100D3000816080937A0080917A00806880937A0045
:100D40001092C10010927D0110927C011092CB0193
:100D50001092ED011092C90111E01093C801109298
:100D6000A30182E10E94DF0083E10E94DF00809105
:100D7000B9008E7F8093B9008091B9008D7F8093F8
:100D8000B90088E48093B80095E49093BC002DE20C
:100D900031E030937B0120937A012EE231E03093F1
:100DA0007901209378011093CA018093EC0110928D
:100DB000CB011092ED0161E08BE892E00E941403F8
:100DC00064E68BE892E00E9414030E94820068EEC1
:100DD00073E080E090E00E9461028FEF84B915B863
:100DE00087E08AB988EF8BB9E091FE01F091FF01AD
:100DF00082E08083E091FA01F091FB011082E091A2
:100E0000FC01F091FD018FEC808310920602E091CD
:100E10000202F091030286E08083E0910002F091EB
:100E20000102808180618083E0910002F0910102E3
:100E3000808188608083E0910002F09101028081CE
:100E400080688083E0910002F091010280818F7DB3
:100E500080838091C10084648093C1008091C00030
:100E600081608093C00061E070E080E090E00E94CB
:100E700061021093A00115B96090280170902901BA
:100E800080902A0105EE90E0E92E90E0F92E28E40A
:100E9000D22ECC24CA9485ECB82E89B18EEE91E086
:100EA0000E948D01892B09F479C01093CA01D09258
:100EB000EC011092CB011092ED0160E08BE892E022
:100EC0000E9414030E9482001093CA011092CB0169
:100ED0001092ED018091C9018111FCCF1093C901DD
:100EE0001093C801C092C7011092C6011093C501AA
:100EF0001093A4018091A40180698093A401809142
:100F0000A301813009F056C01092A3018091A40181
:100F10008093BB008091BC0083FDF8CFB092BC00F1
:100F20008091C9018130E1F38091C60192E0823065
:100F300010F49091C601A5EAB1E0EEE7F1E080E09F
:100F400089133BC010927D0180937C01882361F05E
:100F50008BE892E00E94D4029093A2018093A101B9
:100F60008BE892E00E94D4020E94820069827A8219
:100F70008B828EEE91E00E946B019091000199238B
:100F800001F19091A001891309C010920001109302
:100F90009F018091C0008E7F8093C000E114F10416
:100FA00009F47BCF0E949901882309F474CF0E9431
:100FB000000071CF0093BC00B3CF2D9121938F5FC0
:100FC000BFCF90919F01992321F180939E011092B0
:100FD0009F01813A19F3813B71F4109300010E9443
:100FE0005F0321E050E040E062E070E0CE01019656
:100FF0000E94BC03D3CF813C81F3813D79F61093ED
:1010000000010E945F0327E047E050E06FE070E0DE
:10101000EDCF90919E01913A09F61093000185B9A8
:10102000BDCFAA1BBB1B51E107C0AA1FBB1FA61740
:10103000B70710F0A61BB70B881F991F5A95A9F781
:1010400080959095BC01CD01089597FB072E16F46D
:10105000009407D077FD09D00E94110807FC05D045
:101060003EF4909581959F4F0895709561957F4FBF
:101070000895A1E21A2EAA1BBB1BFD010DC0AA1FD9
:10108000BB1FEE1FFF1FA217B307E407F50720F0F1
:10109000A21BB30BE40BF50B661F771F881F991F6C
:1010A0001A9469F760957095809590959B01AC01B5
:1010B000BD01CF010895EE0FFF1F0590F491E02DC3
:0610C0000994F894FFCF33
:1010C6000100000000CF012F015C011C028D016BA5
:1010D600017F01000000001403E7024303C4022657
:0C10E60001D402C5020D0A0031310000E7
:00000001FF
